{
  "contractName": "Voting",
  "abi": [
    {
      "anonymous": false,
      "inputs": [
        {
          "indexed": true,
          "internalType": "address",
          "name": "previousOwner",
          "type": "address"
        },
        {
          "indexed": true,
          "internalType": "address",
          "name": "newOwner",
          "type": "address"
        }
      ],
      "name": "OwnershipTransferred",
      "type": "event"
    },
    {
      "anonymous": false,
      "inputs": [
        {
          "indexed": false,
          "internalType": "uint256",
          "name": "proposalId",
          "type": "uint256"
        }
      ],
      "name": "ProposalRegistered",
      "type": "event"
    },
    {
      "anonymous": false,
      "inputs": [],
      "name": "ProposalsRegistrationEnded",
      "type": "event"
    },
    {
      "anonymous": false,
      "inputs": [],
      "name": "ProposalsRegistrationStarted",
      "type": "event"
    },
    {
      "anonymous": false,
      "inputs": [
        {
          "indexed": false,
          "internalType": "address",
          "name": "voter",
          "type": "address"
        },
        {
          "indexed": false,
          "internalType": "uint256",
          "name": "proposalId",
          "type": "uint256"
        }
      ],
      "name": "Voted",
      "type": "event"
    },
    {
      "anonymous": false,
      "inputs": [
        {
          "indexed": false,
          "internalType": "address",
          "name": "voterAddress",
          "type": "address"
        }
      ],
      "name": "VoterRegistered",
      "type": "event"
    },
    {
      "anonymous": false,
      "inputs": [],
      "name": "VotesTallied",
      "type": "event"
    },
    {
      "anonymous": false,
      "inputs": [],
      "name": "VotingSessionEnded",
      "type": "event"
    },
    {
      "anonymous": false,
      "inputs": [],
      "name": "VotingSessionStarted",
      "type": "event"
    },
    {
      "anonymous": false,
      "inputs": [
        {
          "indexed": false,
          "internalType": "enum Voting.WorkflowStatus",
          "name": "previousStatus",
          "type": "uint8"
        },
        {
          "indexed": false,
          "internalType": "enum Voting.WorkflowStatus",
          "name": "newStatus",
          "type": "uint8"
        }
      ],
      "name": "WorkflowStatusChange",
      "type": "event"
    },
    {
      "inputs": [
        {
          "internalType": "uint256",
          "name": "",
          "type": "uint256"
        }
      ],
      "name": "addresses",
      "outputs": [
        {
          "internalType": "address",
          "name": "",
          "type": "address"
        }
      ],
      "stateMutability": "view",
      "type": "function",
      "constant": true
    },
    {
      "inputs": [],
      "name": "currentWorkflow",
      "outputs": [
        {
          "internalType": "enum Voting.WorkflowStatus",
          "name": "",
          "type": "uint8"
        }
      ],
      "stateMutability": "view",
      "type": "function",
      "constant": true
    },
    {
      "inputs": [],
      "name": "owner",
      "outputs": [
        {
          "internalType": "address",
          "name": "",
          "type": "address"
        }
      ],
      "stateMutability": "view",
      "type": "function",
      "constant": true
    },
    {
      "inputs": [
        {
          "internalType": "uint256",
          "name": "",
          "type": "uint256"
        }
      ],
      "name": "proposals",
      "outputs": [
        {
          "internalType": "string",
          "name": "description",
          "type": "string"
        },
        {
          "internalType": "uint256",
          "name": "voteCount",
          "type": "uint256"
        }
      ],
      "stateMutability": "view",
      "type": "function",
      "constant": true
    },
    {
      "inputs": [],
      "name": "renounceOwnership",
      "outputs": [],
      "stateMutability": "nonpayable",
      "type": "function"
    },
    {
      "inputs": [
        {
          "internalType": "address",
          "name": "newOwner",
          "type": "address"
        }
      ],
      "name": "transferOwnership",
      "outputs": [],
      "stateMutability": "nonpayable",
      "type": "function"
    },
    {
      "inputs": [
        {
          "internalType": "address",
          "name": "",
          "type": "address"
        }
      ],
      "name": "whitelist",
      "outputs": [
        {
          "internalType": "bool",
          "name": "isRegistered",
          "type": "bool"
        },
        {
          "internalType": "bool",
          "name": "hasVoted",
          "type": "bool"
        },
        {
          "internalType": "uint256",
          "name": "votedProposalId",
          "type": "uint256"
        }
      ],
      "stateMutability": "view",
      "type": "function",
      "constant": true
    },
    {
      "inputs": [],
      "name": "winningProposalId",
      "outputs": [
        {
          "internalType": "uint256",
          "name": "",
          "type": "uint256"
        }
      ],
      "stateMutability": "view",
      "type": "function",
      "constant": true
    },
    {
      "inputs": [],
      "name": "tallyVotes",
      "outputs": [],
      "stateMutability": "nonpayable",
      "type": "function"
    },
    {
      "inputs": [],
      "name": "endVotingSession",
      "outputs": [],
      "stateMutability": "nonpayable",
      "type": "function"
    },
    {
      "inputs": [
        {
          "internalType": "uint256",
          "name": "proposalId",
          "type": "uint256"
        }
      ],
      "name": "registerVote",
      "outputs": [],
      "stateMutability": "nonpayable",
      "type": "function"
    },
    {
      "inputs": [],
      "name": "startVotingSession",
      "outputs": [],
      "stateMutability": "nonpayable",
      "type": "function"
    },
    {
      "inputs": [],
      "name": "endProposalsRegistration",
      "outputs": [],
      "stateMutability": "nonpayable",
      "type": "function"
    },
    {
      "inputs": [
        {
          "internalType": "string",
          "name": "description",
          "type": "string"
        }
      ],
      "name": "registerProposal",
      "outputs": [],
      "stateMutability": "nonpayable",
      "type": "function"
    },
    {
      "inputs": [],
      "name": "startProposalsRegistration",
      "outputs": [],
      "stateMutability": "nonpayable",
      "type": "function"
    },
    {
      "inputs": [
        {
          "internalType": "address",
          "name": "_address",
          "type": "address"
        }
      ],
      "name": "addToWhitelist",
      "outputs": [],
      "stateMutability": "nonpayable",
      "type": "function"
    },
    {
      "inputs": [
        {
          "internalType": "address",
          "name": "_address",
          "type": "address"
        }
      ],
      "name": "getVoter",
      "outputs": [
        {
          "components": [
            {
              "internalType": "bool",
              "name": "isRegistered",
              "type": "bool"
            },
            {
              "internalType": "bool",
              "name": "hasVoted",
              "type": "bool"
            },
            {
              "internalType": "uint256",
              "name": "votedProposalId",
              "type": "uint256"
            }
          ],
          "internalType": "struct Voting.Voter",
          "name": "",
          "type": "tuple"
        }
      ],
      "stateMutability": "view",
      "type": "function",
      "constant": true
    },
    {
      "inputs": [],
      "name": "getAddresses",
      "outputs": [
        {
          "internalType": "address[]",
          "name": "",
          "type": "address[]"
        }
      ],
      "stateMutability": "view",
      "type": "function",
      "constant": true
    },
    {
      "inputs": [],
      "name": "getProposals",
      "outputs": [
        {
          "components": [
            {
              "internalType": "string",
              "name": "description",
              "type": "string"
            },
            {
              "internalType": "uint256",
              "name": "voteCount",
              "type": "uint256"
            }
          ],
          "internalType": "struct Voting.Proposal[]",
          "name": "",
          "type": "tuple[]"
        }
      ],
      "stateMutability": "view",
      "type": "function",
      "constant": true
    },
    {
      "inputs": [],
      "name": "getWorkflow",
      "outputs": [
        {
          "internalType": "enum Voting.WorkflowStatus",
          "name": "",
          "type": "uint8"
        }
      ],
      "stateMutability": "view",
      "type": "function",
      "constant": true
    },
    {
      "inputs": [],
      "name": "getWinningProposalId",
      "outputs": [
        {
          "internalType": "uint256",
          "name": "",
          "type": "uint256"
        }
      ],
      "stateMutability": "view",
      "type": "function",
      "constant": true
    }
  ],
  "bytecode": "0x608060405234801561001057600080fd5b50600061002a6100cd640100000000026401000000009004565b9050806000806101000a81548173ffffffffffffffffffffffffffffffffffffffff021916908373ffffffffffffffffffffffffffffffffffffffff1602179055508073ffffffffffffffffffffffffffffffffffffffff16600073ffffffffffffffffffffffffffffffffffffffff167f8be0079c531659141344cd1fd0a4f28419497f9722a3daafe3b4186f6b6457e060405160405180910390a3506100d5565b600033905090565b6123ec806100e46000396000f3fe608060405234801561001057600080fd5b5060043610610154576000357c010000000000000000000000000000000000000000000000000000000090048063a39fac12116100d5578063e09b8c7911610099578063e09b8c7914610300578063e43252d71461030a578063e81e977b14610326578063edf26d9b14610344578063ee74c67814610374578063f2fde38b1461037e57610154565b8063a39fac121461026c578063a56692ea1461028a578063a7bfab16146102a8578063c64963c5146102b2578063d4f50f98146102d057610154565b806362564c481161011c57806362564c48146101ea5780636c29744514610208578063715018a6146102125780638da5cb5b1461021c5780639b19251a1461023a57610154565b8063013cf08b146101595780631424ffbe1461018a5780632f95355b146101a8578063378a2178146101c4578063464d4a92146101ce575b600080fd5b610173600480360381019061016e9190611a03565b61039a565b604051610181929190611e5e565b60405180910390f35b610192610456565b60405161019f9190611e1a565b60405180910390f35b6101c260048036038101906101bd91906119b6565b610469565b005b6101cc610673565b005b6101e860048036038101906101e39190611a03565b61079f565b005b6101f2610aba565b6040516101ff9190611dc1565b60405180910390f35b610210610bb5565b005b61021a610ce1565b005b610224610e1b565b6040516102319190611d5b565b60405180910390f35b610254600480360381019061024f9190611989565b610e44565b60405161026393929190611de3565b60405180910390f35b610274610e88565b6040516102819190611d9f565b60405180910390f35b610292610f16565b60405161029f9190611e1a565b60405180910390f35b6102b0610f2d565b005b6102ba611059565b6040516102c79190611f69565b60405180910390f35b6102ea60048036038101906102e59190611989565b61105f565b6040516102f79190611f4e565b60405180910390f35b6103086110f8565b005b610324600480360381019061031f9190611989565b611224565b005b61032e6114a6565b60405161033b9190611f69565b60405180910390f35b61035e60048036038101906103599190611a03565b6114b0565b60405161036b9190611d5b565b60405180910390f35b61037c6114ef565b005b61039860048036038101906103939190611989565b61161b565b005b600581815481106103aa57600080fd5b90600052602060002090600202016000915090508060000180546103cd906120f7565b80601f01602080910402602001604051908101604052809291908181526020018280546103f9906120f7565b80156104465780601f1061041b57610100808354040283529160200191610446565b820191906000526020600020905b81548152906001019060200180831161042957829003601f168201915b5050505050908060010154905082565b600260009054906101000a900460ff1681565b3360011515600360008373ffffffffffffffffffffffffffffffffffffffff1673ffffffffffffffffffffffffffffffffffffffff16815260200190815260200160002060000160009054906101000a900460ff16151514610500576040517f08c379a00000000000000000000000000000000000000000000000000000000081526004016104f790611ece565b60405180910390fd5b6001806005811115610515576105146121a1565b5b600260009054906101000a900460ff166005811115610537576105366121a1565b5b14610577576040517f08c379a000000000000000000000000000000000000000000000000000000000815260040161056e90611f2e565b60405180910390fd5b6005604051806040016040528086868080601f016020809104026020016040519081016040528093929190818152602001838380828437600081840152601f19601f820116905080830192505050505050508152602001600081525090806001815401808255809150506001900390600052602060002090600202016000909190919091506000820151816000019080519060200190610618929190611841565b506020820151816001015550507f92e393e9b54e2f801d3ea4beb0c5e71a21cc34a5d34b77d0fb8a3aa1650dc18f60016005805490506106589190612023565b6040516106659190611f69565b60405180910390a150505050565b61067b6117c4565b73ffffffffffffffffffffffffffffffffffffffff16610699610e1b565b73ffffffffffffffffffffffffffffffffffffffff16146106ef576040517f08c379a00000000000000000000000000000000000000000000000000000000081526004016106e690611eae565b60405180910390fd5b6004806005811115610704576107036121a1565b5b600260009054906101000a900460ff166005811115610726576107256121a1565b5b14610766576040517f08c379a000000000000000000000000000000000000000000000000000000000815260040161075d90611f2e565b60405180910390fd5b61077060056117cc565b7f0e5e95ff8725ab3e7a4b6b59998a4c344c2aa8d1485f5e60cb7f337768e6134760405160405180910390a150565b3360011515600360008373ffffffffffffffffffffffffffffffffffffffff1673ffffffffffffffffffffffffffffffffffffffff16815260200190815260200160002060000160009054906101000a900460ff16151514610836576040517f08c379a000000000000000000000000000000000000000000000000000000000815260040161082d90611ece565b60405180910390fd5b600380600581111561084b5761084a6121a1565b5b600260009054906101000a900460ff16600581111561086d5761086c6121a1565b5b146108ad576040517f08c379a00000000000000000000000000000000000000000000000000000000081526004016108a490611f2e565b60405180910390fd5b60001515600360003373ffffffffffffffffffffffffffffffffffffffff1673ffffffffffffffffffffffffffffffffffffffff16815260200190815260200160002060000160019054906101000a900460ff16151514610943576040517f08c379a000000000000000000000000000000000000000000000000000000000815260040161093a90611eee565b60405180910390fd5b6001600360003373ffffffffffffffffffffffffffffffffffffffff1673ffffffffffffffffffffffffffffffffffffffff16815260200190815260200160002060000160016101000a81548160ff02191690831515021790555082600360003373ffffffffffffffffffffffffffffffffffffffff1673ffffffffffffffffffffffffffffffffffffffff16815260200190815260200160002060010181905550600583815481106109f9576109f86121ff565b5b90600052602060002090600202016001016000815480929190610a1b90612129565b9190505550600560015481548110610a3657610a356121ff565b5b90600052602060002090600202016001015460058481548110610a5c57610a5b6121ff565b5b9060005260206000209060020201600101541115610a7c57826001819055505b7f4d99b957a2bc29a30ebd96a7be8e68fe50a3c701db28a91436490b7d53870ca43384604051610aad929190611d76565b60405180910390a1505050565b60606005805480602002602001604051908101604052809291908181526020016000905b82821015610bac5783829060005260206000209060020201604051806040016040529081600082018054610b11906120f7565b80601f0160208091040260200160405190810160405280929190818152602001828054610b3d906120f7565b8015610b8a5780601f10610b5f57610100808354040283529160200191610b8a565b820191906000526020600020905b815481529060010190602001808311610b6d57829003601f168201915b5050505050815260200160018201548152505081526020019060010190610ade565b50505050905090565b610bbd6117c4565b73ffffffffffffffffffffffffffffffffffffffff16610bdb610e1b565b73ffffffffffffffffffffffffffffffffffffffff1614610c31576040517f08c379a0000000000000000000000000000000000000000000000000000000008152600401610c2890611eae565b60405180910390fd5b6001806005811115610c4657610c456121a1565b5b600260009054906101000a900460ff166005811115610c6857610c676121a1565b5b14610ca8576040517f08c379a0000000000000000000000000000000000000000000000000000000008152600401610c9f90611f2e565b60405180910390fd5b610cb260026117cc565b7f240cb87b2e4df4c318e72bd714d45a9cad60249e883ff56b1fffd83a4595a8fa60405160405180910390a150565b610ce96117c4565b73ffffffffffffffffffffffffffffffffffffffff16610d07610e1b565b73ffffffffffffffffffffffffffffffffffffffff1614610d5d576040517f08c379a0000000000000000000000000000000000000000000000000000000008152600401610d5490611eae565b60405180910390fd5b600073ffffffffffffffffffffffffffffffffffffffff1660008054906101000a900473ffffffffffffffffffffffffffffffffffffffff1673ffffffffffffffffffffffffffffffffffffffff167f8be0079c531659141344cd1fd0a4f28419497f9722a3daafe3b4186f6b6457e060405160405180910390a360008060006101000a81548173ffffffffffffffffffffffffffffffffffffffff021916908373ffffffffffffffffffffffffffffffffffffffff160217905550565b60008060009054906101000a900473ffffffffffffffffffffffffffffffffffffffff16905090565b60036020528060005260406000206000915090508060000160009054906101000a900460ff16908060000160019054906101000a900460ff16908060010154905083565b60606004805480602002602001604051908101604052809291908181526020018280548015610f0c57602002820191906000526020600020905b8160009054906101000a900473ffffffffffffffffffffffffffffffffffffffff1673ffffffffffffffffffffffffffffffffffffffff1681526020019060010190808311610ec2575b5050505050905090565b6000600260009054906101000a900460ff16905090565b610f356117c4565b73ffffffffffffffffffffffffffffffffffffffff16610f53610e1b565b73ffffffffffffffffffffffffffffffffffffffff1614610fa9576040517f08c379a0000000000000000000000000000000000000000000000000000000008152600401610fa090611eae565b60405180910390fd5b6003806005811115610fbe57610fbd6121a1565b5b600260009054906101000a900460ff166005811115610fe057610fdf6121a1565b5b14611020576040517f08c379a000000000000000000000000000000000000000000000000000000000815260040161101790611f2e565b60405180910390fd5b61102a60046117cc565b7fc379d349a6301baf50fb2f98d829f4ae10b1cdb7c66f4e4d8117302df7b8cd4c60405160405180910390a150565b60015481565b6110676118c7565b600360008373ffffffffffffffffffffffffffffffffffffffff1673ffffffffffffffffffffffffffffffffffffffff1681526020019081526020016000206040518060600160405290816000820160009054906101000a900460ff161515151581526020016000820160019054906101000a900460ff161515151581526020016001820154815250509050919050565b6111006117c4565b73ffffffffffffffffffffffffffffffffffffffff1661111e610e1b565b73ffffffffffffffffffffffffffffffffffffffff1614611174576040517f08c379a000000000000000000000000000000000000000000000000000000000815260040161116b90611eae565b60405180910390fd5b6000806005811115611189576111886121a1565b5b600260009054906101000a900460ff1660058111156111ab576111aa6121a1565b5b146111eb576040517f08c379a00000000000000000000000000000000000000000000000000000000081526004016111e290611f2e565b60405180910390fd5b6111f560016117cc565b7f344c25562921d075a298d34b6dd1fd00d36ff293974539dfd4a8c625d9f0064c60405160405180910390a150565b61122c6117c4565b73ffffffffffffffffffffffffffffffffffffffff1661124a610e1b565b73ffffffffffffffffffffffffffffffffffffffff16146112a0576040517f08c379a000000000000000000000000000000000000000000000000000000000815260040161129790611eae565b60405180910390fd5b60008060058111156112b5576112b46121a1565b5b600260009054906101000a900460ff1660058111156112d7576112d66121a1565b5b14611317576040517f08c379a000000000000000000000000000000000000000000000000000000000815260040161130e90611f2e565b60405180910390fd5b60001515600360008473ffffffffffffffffffffffffffffffffffffffff1673ffffffffffffffffffffffffffffffffffffffff16815260200190815260200160002060000160009054906101000a900460ff161515146113ad576040517f08c379a00000000000000000000000000000000000000000000000000000000081526004016113a490611f0e565b60405180910390fd5b6001600360008473ffffffffffffffffffffffffffffffffffffffff1673ffffffffffffffffffffffffffffffffffffffff16815260200190815260200160002060000160006101000a81548160ff0219169083151502179055506004829080600181540180825580915050600190039060005260206000200160009091909190916101000a81548173ffffffffffffffffffffffffffffffffffffffff021916908373ffffffffffffffffffffffffffffffffffffffff1602179055507fb6be2187d059cc2a55fe29e0e503b566e1e0f8c8780096e185429350acffd3dd8260405161149a9190611d5b565b60405180910390a15050565b6000600154905090565b600481815481106114c057600080fd5b906000526020600020016000915054906101000a900473ffffffffffffffffffffffffffffffffffffffff1681565b6114f76117c4565b73ffffffffffffffffffffffffffffffffffffffff16611515610e1b565b73ffffffffffffffffffffffffffffffffffffffff161461156b576040517f08c379a000000000000000000000000000000000000000000000000000000000815260040161156290611eae565b60405180910390fd5b60028060058111156115805761157f6121a1565b5b600260009054906101000a900460ff1660058111156115a2576115a16121a1565b5b146115e2576040517f08c379a00000000000000000000000000000000000000000000000000000000081526004016115d990611f2e565b60405180910390fd5b6115ec60036117cc565b7f1b8e19a458c1bcd88553332c518cc5c4e2d5793e712ee766d4f1c14f672ef1f560405160405180910390a150565b6116236117c4565b73ffffffffffffffffffffffffffffffffffffffff16611641610e1b565b73ffffffffffffffffffffffffffffffffffffffff1614611697576040517f08c379a000000000000000000000000000000000000000000000000000000000815260040161168e90611eae565b60405180910390fd5b600073ffffffffffffffffffffffffffffffffffffffff168173ffffffffffffffffffffffffffffffffffffffff161415611707576040517f08c379a00000000000000000000000000000000000000000000000000000000081526004016116fe90611e8e565b60405180910390fd5b8073ffffffffffffffffffffffffffffffffffffffff1660008054906101000a900473ffffffffffffffffffffffffffffffffffffffff1673ffffffffffffffffffffffffffffffffffffffff167f8be0079c531659141344cd1fd0a4f28419497f9722a3daafe3b4186f6b6457e060405160405180910390a3806000806101000a81548173ffffffffffffffffffffffffffffffffffffffff021916908373ffffffffffffffffffffffffffffffffffffffff16021790555050565b600033905090565b7f0a97a4ee45751e2abf3e4fc8946939630b11b371ea8ae39ccdc3056e98f5cc3f600260009054906101000a900460ff168260405161180c929190611e35565b60405180910390a180600260006101000a81548160ff02191690836005811115611839576118386121a1565b5b021790555050565b82805461184d906120f7565b90600052602060002090601f01602090048101928261186f57600085556118b6565b82601f1061188857805160ff19168380011785556118b6565b828001600101855582156118b6579182015b828111156118b557825182559160200191906001019061189a565b5b5090506118c391906118ec565b5090565b6040518060600160405280600015158152602001600015158152602001600081525090565b5b808211156119055760008160009055506001016118ed565b5090565b60008135905061191881612388565b92915050565b60008083601f84011261193457611933612233565b5b8235905067ffffffffffffffff8111156119515761195061222e565b5b60208301915083600182028301111561196d5761196c612238565b5b9250929050565b6000813590506119838161239f565b92915050565b60006020828403121561199f5761199e612242565b5b60006119ad84828501611909565b91505092915050565b600080602083850312156119cd576119cc612242565b5b600083013567ffffffffffffffff8111156119eb576119ea61223d565b5b6119f78582860161191e565b92509250509250929050565b600060208284031215611a1957611a18612242565b5b6000611a2784828501611974565b91505092915050565b6000611a3c8383611a5c565b60208301905092915050565b6000611a548383611cbe565b905092915050565b611a6581612057565b82525050565b611a7481612057565b82525050565b6000611a8582611fa4565b611a8f8185611fdf565b9350611a9a83611f84565b8060005b83811015611acb578151611ab28882611a30565b9750611abd83611fc5565b925050600181019050611a9e565b5085935050505092915050565b6000611ae382611faf565b611aed8185611ff0565b935083602082028501611aff85611f94565b8060005b85811015611b3b5784840389528151611b1c8582611a48565b9450611b2783611fd2565b925060208a01995050600181019050611b03565b50829750879550505050505092915050565b611b5681612069565b82525050565b611b6581612069565b82525050565b611b74816120b2565b82525050565b6000611b8582611fba565b611b8f8185612001565b9350611b9f8185602086016120c4565b611ba881612247565b840191505092915050565b6000611bbe82611fba565b611bc88185612012565b9350611bd88185602086016120c4565b611be181612247565b840191505092915050565b6000611bf9602683612012565b9150611c0482612258565b604082019050919050565b6000611c1c602083612012565b9150611c27826122a7565b602082019050919050565b6000611c3f601783612012565b9150611c4a826122d0565b602082019050919050565b6000611c62601983612012565b9150611c6d826122f9565b602082019050919050565b6000611c85601b83612012565b9150611c9082612322565b602082019050919050565b6000611ca8601583612012565b9150611cb38261234b565b602082019050919050565b60006040830160008301518482036000860152611cdb8282611b7a565b9150506020830151611cf06020860182611d3d565b508091505092915050565b606082016000820151611d116000850182611b4d565b506020820151611d246020850182611b4d565b506040820151611d376040850182611d3d565b50505050565b611d46816120a8565b82525050565b611d55816120a8565b82525050565b6000602082019050611d706000830184611a6b565b92915050565b6000604082019050611d8b6000830185611a6b565b611d986020830184611d4c565b9392505050565b60006020820190508181036000830152611db98184611a7a565b905092915050565b60006020820190508181036000830152611ddb8184611ad8565b905092915050565b6000606082019050611df86000830186611b5c565b611e056020830185611b5c565b611e126040830184611d4c565b949350505050565b6000602082019050611e2f6000830184611b6b565b92915050565b6000604082019050611e4a6000830185611b6b565b611e576020830184611b6b565b9392505050565b60006040820190508181036000830152611e788185611bb3565b9050611e876020830184611d4c565b9392505050565b60006020820190508181036000830152611ea781611bec565b9050919050565b60006020820190508181036000830152611ec781611c0f565b9050919050565b60006020820190508181036000830152611ee781611c32565b9050919050565b60006020820190508181036000830152611f0781611c55565b9050919050565b60006020820190508181036000830152611f2781611c78565b9050919050565b60006020820190508181036000830152611f4781611c9b565b9050919050565b6000606082019050611f636000830184611cfb565b92915050565b6000602082019050611f7e6000830184611d4c565b92915050565b6000819050602082019050919050565b6000819050602082019050919050565b600081519050919050565b600081519050919050565b600081519050919050565b6000602082019050919050565b6000602082019050919050565b600082825260208201905092915050565b600082825260208201905092915050565b600082825260208201905092915050565b600082825260208201905092915050565b600061202e826120a8565b9150612039836120a8565b92508282101561204c5761204b612172565b5b828203905092915050565b600061206282612088565b9050919050565b60008115159050919050565b600081905061208382612374565b919050565b600073ffffffffffffffffffffffffffffffffffffffff82169050919050565b6000819050919050565b60006120bd82612075565b9050919050565b60005b838110156120e25780820151818401526020810190506120c7565b838111156120f1576000848401525b50505050565b6000600282049050600182168061210f57607f821691505b60208210811415612123576121226121d0565b5b50919050565b6000612134826120a8565b91507fffffffffffffffffffffffffffffffffffffffffffffffffffffffffffffffff82141561216757612166612172565b5b600182019050919050565b7f4e487b7100000000000000000000000000000000000000000000000000000000600052601160045260246000fd5b7f4e487b7100000000000000000000000000000000000000000000000000000000600052602160045260246000fd5b7f4e487b7100000000000000000000000000000000000000000000000000000000600052602260045260246000fd5b7f4e487b7100000000000000000000000000000000000000000000000000000000600052603260045260246000fd5b600080fd5b600080fd5b600080fd5b600080fd5b600080fd5b6000601f19601f8301169050919050565b7f4f776e61626c653a206e6577206f776e657220697320746865207a65726f206160008201527f6464726573730000000000000000000000000000000000000000000000000000602082015250565b7f4f776e61626c653a2063616c6c6572206973206e6f7420746865206f776e6572600082015250565b7f41646472657373206e6f742077686974656c6973746564000000000000000000600082015250565b7f416464726573732068617320616c726561647920766f74656400000000000000600082015250565b7f4164647265737320616c72656164792077686974656c69737465640000000000600082015250565b7f576f72666c6f77206e6f74207265737065637465640000000000000000000000600082015250565b60068110612385576123846121a1565b5b50565b61239181612057565b811461239c57600080fd5b50565b6123a8816120a8565b81146123b357600080fd5b5056fea26469706673582212201a11ba89a05cd1339ca7ea62e21cf8870874ad815dc0845e20db28ee8532815264736f6c63430008060033",
  "immutableReferences": {},
  "source": "// SPDX-License-Identifier: GPL-3.0\npragma solidity ^0.8.0;\n\nimport \"@openzeppelin/contracts/access/Ownable.sol\";\n\ncontract Voting is Ownable {\n\n    uint public winningProposalId;\n    WorkflowStatus public currentWorkflow;\n\n    struct Voter {\n        bool isRegistered;\n        bool hasVoted;\n        uint votedProposalId;\n    }\n\n    struct Proposal {\n        string description;\n        uint voteCount;\n    }\n\n    enum WorkflowStatus {\n        RegisteringVoters,\n        ProposalsRegistrationStarted,\n        ProposalsRegistrationEnded,\n        VotingSessionStarted,\n        VotingSessionEnded,\n        VotesTallied\n    }\n\n    event VoterRegistered(address voterAddress);\n    event ProposalsRegistrationStarted();\n    event ProposalsRegistrationEnded();\n    event ProposalRegistered(uint proposalId);\n    event VotingSessionStarted();\n    event VotingSessionEnded();\n    event Voted(address voter, uint proposalId);\n    event VotesTallied();\n    event WorkflowStatusChange(WorkflowStatus previousStatus, WorkflowStatus newStatus);\n\n    mapping (address => Voter) public whitelist;\n    address[] public addresses;\n    Proposal[] public proposals;\n\n    modifier onlyWhitelisted(address _address) {\n        require(whitelist[_address].isRegistered == true, \"Address not whitelisted\");\n        _;\n    }\n\n    modifier workflow(WorkflowStatus expectedWorkflow) {\n        require(currentWorkflow == expectedWorkflow, \"Worflow not respected\");\n        _;\n    }\n\n    function tallyVotes() external onlyOwner workflow(WorkflowStatus.VotingSessionEnded) {\n        changeWorkflowStatus(WorkflowStatus.VotesTallied);\n        emit VotesTallied();\n    }\n\n    function endVotingSession() external onlyOwner workflow(WorkflowStatus.VotingSessionStarted) {\n        changeWorkflowStatus(WorkflowStatus.VotingSessionEnded);\n        emit VotingSessionEnded();\n    }\n\n    function registerVote(uint proposalId) external onlyWhitelisted(msg.sender) workflow(WorkflowStatus.VotingSessionStarted) {\n        require(whitelist[msg.sender].hasVoted == false, \"Address has already voted\");\n        whitelist[msg.sender].hasVoted = true;\n        whitelist[msg.sender].votedProposalId = proposalId;\n        proposals[proposalId].voteCount++;\n\n        if (proposals[proposalId].voteCount > proposals[winningProposalId].voteCount) {\n            winningProposalId = proposalId;\n        }\n        emit Voted(msg.sender, proposalId);\n    }\n\n    function startVotingSession() external onlyOwner workflow(WorkflowStatus.ProposalsRegistrationEnded) {\n        changeWorkflowStatus(WorkflowStatus.VotingSessionStarted);\n        emit VotingSessionStarted();\n    }\n\n    function endProposalsRegistration() external onlyOwner workflow(WorkflowStatus.ProposalsRegistrationStarted) {\n        changeWorkflowStatus(WorkflowStatus.ProposalsRegistrationEnded);\n        emit ProposalsRegistrationEnded();\n    }\n\n    function registerProposal(string calldata description) external onlyWhitelisted(msg.sender) workflow(WorkflowStatus.ProposalsRegistrationStarted) {\n        proposals.push(Proposal(description, 0));\n        emit ProposalRegistered(proposals.length - 1);\n    }\n\n    function startProposalsRegistration() external onlyOwner workflow(WorkflowStatus.RegisteringVoters) {\n        changeWorkflowStatus(WorkflowStatus.ProposalsRegistrationStarted);\n        emit ProposalsRegistrationStarted();\n    }\n\n    function changeWorkflowStatus(WorkflowStatus newStatus) internal {\n        emit WorkflowStatusChange(currentWorkflow, newStatus);\n        currentWorkflow = newStatus;\n    }\n\n    function addToWhitelist(address _address) external onlyOwner workflow(WorkflowStatus.RegisteringVoters) {\n        require (whitelist[_address].isRegistered == false, \"Address already whitelisted\");\n        whitelist[_address].isRegistered = true;\n        addresses.push(_address);\n        emit VoterRegistered(_address);\n    }\n\n    function getVoter(address _address) public view returns(Voter memory) {\n        return whitelist[_address];\n    }\n\n    function getAddresses() public view returns(address[] memory){\n        return addresses;\n    }\n\n    function getProposals() public view returns(Proposal[] memory){\n        return proposals;\n    }\n\n    function getWorkflow() public view returns(WorkflowStatus){\n       return currentWorkflow;\n    }\n\n    function getWinningProposalId() public view returns(uint){\n       return winningProposalId;\n    }\n}\n",
  "sourcePath": "/Users/nicolas/Desktop/TruffleVoting/contracts/Voting.sol",
  "compiler": {
    "name": "solc",
    "version": "0.8.6+commit.11564f7e.Emscripten.clang"
  },
  "schemaVersion": "3.4.1",
  "updatedAt": "2021-07-04T12:40:27.283Z",
  "networkType": "ethereum",
  "devdoc": {
    "kind": "dev",
    "methods": {
      "owner()": {
        "details": "Returns the address of the current owner."
      },
      "renounceOwnership()": {
        "details": "Leaves the contract without owner. It will not be possible to call `onlyOwner` functions anymore. Can only be called by the current owner. NOTE: Renouncing ownership will leave the contract without an owner, thereby removing any functionality that is only available to the owner."
      },
      "transferOwnership(address)": {
        "details": "Transfers ownership of the contract to a new account (`newOwner`). Can only be called by the current owner."
      }
    },
    "version": 1
  },
  "userdoc": {
    "kind": "user",
    "methods": {},
    "version": 1
  }
}